:020000040800F2
:10000000700500202D010008A1250008D32000085C
:1000100000000000000000000000000000000000E0
:10002000000000000000000000000000A9280008F7
:100030000000000000000000A9250008AB2800080F
:100040003F0100083F0100083F0100083F01000890
:100050003F0100083F0100083F0100083F01000880
:100060003F0100083F0100083F0100083F01000870
:100070003F0100083F0100083F0100083F01000860
:100080003F01000835290008000000003F0100087A
:100090003F0100083F0100083F0100083F01000840
:1000A0003F0100083F0100083F0100083F01000830
:1000B0003F010008000000003F0100080448854699
:1000C00000F0AAFB00480047E1410008C046C046D6
:1000D0007005002000BF704730B50446124DA96975
:1000E000302565436B1C303B994208D3CA1A00BFC8
:1000F0000D4DA86988420ED89042F9D80BE00A4D00
:100100006D696D186D1CEA1A00BF074DA869884219
:10011000FBD99042F9D830BD10B50446002C02D06E
:10012000204600F0B5FB10BD00E000E00448804729
:1001300004480047FEE7FEE7FEE7FEE7FEE7FEE7CE
:1001400031290008BD00000830B50B4601460020EB
:100150002022012409E00D46D5409D4205D31D46CD
:100160009540491B2546954040191546521E002DC5
:10017000F1DC30BD70B500242546002801DA0124E9
:100180004042002901DA01254942FFF7DDFFAC4278
:1001900000D04042002C00D0494270BDF0B51FB4E1
:1001A0000646002082B005464024019100901BE0E5
:1001B000019922460F46304600F020F8049A059B2C
:1001C000801A994110D310461946224600F077F95B
:1001D000361A8F410197224601200021009F00F02E
:1001E0006EF938184D4100902046641E0028DFDC6F
:1001F000019B00982946324607B0F0BD10B5202A71
:1002000004DB0846203AD040002110BD0B46D34005
:10021000D0402024A21A91400843194610BDD2B202
:1002200001E00270401C491EFBD270470022F6E735
:1002300010B513460A4604461946FFF7F0FF20465C
:1002400010BD421E5378521C002BFBD10B7813704B
:10025000491C521C002BF9D1704703460A780270E2
:10026000401C491C002AF9D118467047F0B51FB44C
:1002700088B00B990998002448400999C00F49009B
:1002800049080991C0070B990090490049080B9152
:1002900009990898A64608431CD00B990A98084368
:1002A00018D0099801244000420D4800410D0998DA
:1002B00024050003000B204309900B980003000B5A
:1002C00020430B9050181C494018002201901446FE
:1002D000104605E0002001460DB0F0BD032801DA0C
:1002E000034600E003239C46C11A0AAE0AE05F0001
:1002F00008ADED5B4F00F75B7D430027AA187C41FA
:10030000491C5B1E6145F2DD410004AB5A522104D9
:10031000120C0A43240C401C0828DFDB01980290D1
:100320000099704601910090059B049A07990698E0
:1003300000F023F9D0E700000DFCFFFFF0B50C46FC
:100340005C4085B0E40FE40703944C000026640889
:1003500059009446490802460296224321D062463B
:100360000A431ED06200570D4A000E032303550DA9
:10037000012402462C492405781B1B0B360B401820
:1003800023432643614600901C46501AB44103D3D0
:100390000098401C009002E0921800985B410028F1
:1003A00003DA0020014605B0F0BD00200121090557
:1003B0000746864611E064461D46141BB54106D328
:1003C0006546521BB341744607430C43A646CD070E
:1003D00040084908284392185B4105460D43EAD17D
:1003E0001046184313D060461946504071400843E8
:1003F00006D06046101AB34106D20122002306E05F
:1004000000220123DB0702E00122D24353100098AF
:1004100074460105381C6141029C039D0019694125
:1004200000F09EF8BFE70000FD0300000EB5C21704
:10043000C10F5040CA0740180021054B029301929A
:1004400000910A460B4600F098F803B000BD00008A
:1004500033040000C20F410040020123400ADB05C3
:10046000D207090EC0187F2901DA002070479629AB
:1004700003DC9623591AC84001E096398840002AC7
:10048000F4D040427047CB0FDB07490010B5490854
:1004900002460A4307D00A0D07240903E401090BA9
:1004A000121B002A01DC002010BDC900440F0C43C0
:1004B000C100E018D205801800F011F810BD10B589
:1004C000202A04DB0146203A9140002010BD9140D3
:1004D00020239C1A0346E3401943904010BD002995
:1004E00004DA401C490001D140084000704770B454
:1004F0000024050C05D11024000402D1002921D0CC
:100500001124050E01D100020834050F01D10001AC
:10051000241D850F01D18000A41C002801DB4000B0
:10052000641C002908D020252E1B0D46F540A14053
:1005300000D001212943084301061B1B000ADB1DD3
:1005400002D5002070BC7047DB0518188018002900
:10055000F8DA401C4900F5D170BC400840007047F3
:1005600010B5002B08DA0024401C614192185B4151
:100570001A4301D14008400010BDF0B51FB482B04D
:1005800005460C0003D0084602F02AFC02E002F007
:1005900027FC20300246009021462846FFF78FFFB7
:1005A000049B059A04460F4618431143084314D090
:1005B000184610431BD0009840210A1A1846059986
:1005C000FFF71CFE05460E46009A05990498FFF7B2
:1005D00076FF084305D0012004E02046394607B0E5
:1005E000F0BD0020C11705430E432C43374300994B
:1005F0000E986305401A7905E40A00220C43FD0AAF
:100600000A3002D500200146E9E7010510196941C9
:100610000C9C0D9D00196941FFF7A2FFDFE7000068
:10062000F0B507460846584087B0C00F0490480010
:100630000E46590040084908BC1A884105D2384680
:1006400031461E4617460B460246580040081043E6
:100650004DD0300D039040055900400D490D0590D7
:10066000401A0290402873DA18030121000B090593
:100670000843019004980092002806D01146019A80
:1006800049420020904100910190029840210A1AAD
:1006900001990098FFF713FF05460C466B4607CB00
:1006A00000F0CCF8C0197141039A0E0D0023D71742
:1006B00056401A467A40164344D0049A002A2DD058
:1006C000029A012A039A15DC1205C01A91410126EB
:1006D0003605001C7141D20F059ED207009301928E
:1006E00002962A462346FFF748FF07B0F0BD38467A
:1006F0003146FAE71605234A0F46B218C01AB74129
:1007000001210905001C4F4100187F4111461818AE
:100710007941E20F10436D19644113E0E2076D085F
:1007200015436408C2071443039A01261205C01A30
:1007300091413605001C7141CE07400830434908FD
:10074000C01851412A462346FFF70AFFCDE7FFE7CD
:10075000049801224000C117121A00238B4104980B
:100760003146C417381AA141EEE730B40124E4073A
:10077000634030BC54E730B40124E407614030BC2E
:100780004EE700000000E0FF4A0009030123090BC7
:100790001B0519430A4B10B5520D9A4202DA00208C
:1007A000014610BD064B34339A4203DC9A1AFFF718
:1007B00025FD10BD034BD218FFF781FE10BD0000D0
:1007C000FF030000CDFBFFFF10B5002904DB01246F
:1007D000E40740428C412146002B04DB1C460123E8
:1007E000DB075242A3418B4200D1824210BD000080
:1007F00010B5002904DB0124E40740428C41214666
:10080000002B04DB1C460123DB075242A341994223
:1008100000D1904210BD0000064C0125064E05E0B7
:10082000E36807CC2B430C3C98471034B442F7D311
:10083000FFF748FCF84300081844000810B5202AC8
:1008400006DBCB170846203A1041C1170B4306E0E0
:100850000B461341D0402024A21A91400843194668
:1008600010BD70B54B005B0803430BD04B005C0D13
:10087000002633466542B341D417AD1AA34102DBCB
:100880000020014670BD12053018514170BD7047FF
:1008900070B5044600F00CF906462546681C002891
:1008A00002D0054800782D1800BF00F001F9801B28
:1008B000A842FAD370BD00003000002078B503468E
:1008C0000022DDE0012696400C683440002C7DD0EB
:1008D0004D68012D08D04D68022D05D04D68112DB1
:1008E00002D04D68122D18D1986856000325B540E6
:1008F0000646AE4330465600CD68B5402843986062
:100900005868012595400646AE43304610264D688E
:1009100035402D09954028435860D8685600032576
:10092000B5400646AE43304656008D68B540284374
:10093000D8604D68022D02D04D68122D15D1D50812
:10094000AE001D462035A8595507EE0E0F25B540BF
:100950000646AE4330465607F60E0D69B5402843AD
:10096000D508AD001E462036705118685600032584
:10097000B5400646AE4330460D79AD07AD0F560083
:10098000B54028431860012636074D683540B5420A
:1009900075D100BF3D4DAD69012635433B4EB56174
:1009A0003546AD69ED07ED0F009500BF00BF384D2E
:1009B0009608B600A85995072E0F0F25B540064694
:1009C000AE4330460925ED06AB4200E057E001D1C9
:1009D00000250FE02F4DAB4201D101250AE02E4D3D
:1009E000AB4201D1022505E02C4DAB4201D10325DC
:1009F00000E005259607360FB5402843244D96089C
:100A0000B600A851264D28680546A543284601266C
:100A100036044D683540B54202D105462543284687
:100A20001F4D286068680546A543284601267604C0
:100A30004D683540B54202D1054625432846184D3C
:100A40006860A8680546A5432846012636054D6816
:100A50003540B54202D1054625432846104DA860D1
:100A6000E8680546A5432846012676054D683540C9
:100A7000B54202D1054625432846094DE860521C7F
:100A80000D68D540002D00D01CE778BD0010024055
:100A9000080001400004004800080048000C00481D
:100AA00000040140002A01D0816100E081627047AA
:100AB00001480068704700002800002003480068D3
:100AC0000349097840180149086070472800002050
:100AD0003000002010B50648006810210843044982
:100AE0000860002000F006F800F02EF8002010BD8D
:100AF0000020024070B50446104801787D20C000F7
:100B0000FFF722FB064631460D480068FFF71CFB45
:100B1000054601F001F8002801D0012070BD042C29
:100B200007D200222146501E00F03CF80548046020
:100B300001E00120F2E70020F0E700003000002093
:100B4000340000202C00002008B500BF0D4880694B
:100B5000012108430B49886108468069C007C00F1E
:100B6000009000BF00BF00BF0846C06909040843E9
:100B70000449C8610846C06909040840009000BFE4
:100B800000BF08BD001002400146002905DBCB066E
:100B9000DB0E01229A40024B1A6000BF7047000032
:100BA00000E100E070B504460D4616462946204691
:100BB00002F06AF970BD0000F8B504460026002571
:100BC000012109042068084088427AD10027524850
:100BD000C0690903084000280DD100BF4E48C06914
:100BE00008434D49C8610846C0690904084000909F
:100BF00000BF00BF012749480068FF2101310840BC
:100C0000002816D145480068084344490860FFF7AA
:100C10004FFF064606E0FFF74BFF801B642801D913
:100C20000320F8BD3D480068FF210131084000283D
:100C3000F1D03948006A0321090208400546002D19
:100C40002DD060680840A84229D03348006A884304
:100C500005463148006A0121090408432E4908620B
:100C60000846006A0121090488432B4908620846A6
:100C70000562E807C00F002811D0FFF719FF0646EC
:100C800007E0FFF715FF801B2549884201D90320A3
:100C9000C7E72148006A022108400028F1D01E4819
:100CA000006A032109028843616808431A490862FF
:100CB000012F05D10846C069090488431649C86157
:100CC00000BF2078C007C00F002807D01248006B73
:100CD00080088000A16808430F490863202120682C
:100CE0000840202807D10C48006B10218843E16898
:100CF00008430949086301218902206808408842A5
:100D000007D10548006B4021884321690843024907
:100D10000863002085E700000010024000700040DA
:100D2000881300007047000070B504460D46002C83
:100D300001D1012070BD52480068C007C00FA84211
:100D40000ED24F4800684008400028434C490860D4
:100D500008460068C007C00FA84201D00120E9E79B
:100D6000022120680840022814D10421206808408C
:100D7000042807D1434840680721090288434018E6
:100D8000404948603F484068F0218843A1680843D3
:100D90003C4948602078C007C00F00283BD06068FD
:100DA000012808D13748006801214904084000287B
:100DB00015D10120BEE76068022808D131480068DB
:100DC000012149060840002809D10120B2E72D4839
:100DD000006802210840002801D10120AAE7294823
:100DE0004068800880006168084326494860FFF732
:100DF0005FFE064607E0FFF75BFE801B2249884244
:100E000001D9032096E71F4840680C21084061681B
:100E100089008842EFD11A480068C007C00FA84275
:100E20000ED917480068400840002843144908605C
:100E300008460068C007C00FA84201D0012079E72A
:100E4000042120680840042808D10E484068072182
:100E500009028843E16808430A49486000F03CF809
:100E600008494968F02211400909084A515CC84004
:100E7000074908600020FFF73DFE00205AE7000008
:100E80000020024000100240881300003B4300088D
:100E900034000020034800680121C90408430149C7
:100EA0000860704700100240014800687047000069
:100EB0003400002000B5FFF7F7FF05494968072215
:100EC00012021140090A034A515CC84000BD0000EB
:100ED000001002404B430008F0B589B027A001463E
:100EE0000EC9C06805AC0EC4089028A001460EC902
:100EF000C06801AC0EC40490002400250027002621
:100F000000200090254844680C20204000282DD067
:100F1000042802D0082828D102E02148009028E0C7
:100F20000F2080042040800C05A90E5C1B48C06A7D
:100F30000007000F01A90D5C0120000420400121E1
:100F4000090488420AD12A46002315481946FFF7AA
:100F500025F9314601F05BFF074604E011483146B0
:100F600001F055FF0746009703E000BF0C480090D2
:100F700000BF00BF009809B0F0BD000002030405E7
:100F8000060708090A0B0C0D0E0F101001020304CE
:100F900005060708090A0B0C0D0E0F100010024081
:100FA00000127A0000093D0010B5064880688021D3
:100FB0000840802804D1FFF7B5FE802001498872DF
:100FC00010BD000000100240FEB50446002C01D107
:100FD0000120FEBD2078C007C00F002871D0FC485A
:100FE00040680C21084004280BD0F94840680840AC
:100FF000082812D1F64840680121090408408842B7
:101000000BD1F348006801214904084000286BD047
:101010006068002868D10120DBE700BF6068012814
:1010200007D1EB480068012109040843E84908603A
:1010300031E0606800280ED1E5480068012109040C
:101040008843E34908600846006801218904884311
:10105000DF4908601FE0606805280ED1DC480068A1
:10106000012189040843DA49086008460068012123
:1010700009040843D64908600DE0D54800680121FD
:1010800009048843D24908600846006801218904A0
:101090008843CF49086000BF6068002812D0FFF77E
:1010A00007FD054606E0FFF703FD401B642801D954
:1010B00003208EE7C6480068012149040840002843
:1010C000F1D011E0FFF7F4FC054606E0FFF7F0FC75
:1010D000401B642801D903207BE7BD48006801213B
:1010E000490408400028F1D1022120680840022864
:1010F00061D1B74840680C21084000280BD0B448A3
:101100004068084008281BD1B14840680121090403
:101110000840002814D1AE48006802210840002889
:1011200004D0E068012801D0012052E7A8480068F7
:10113000F82188432169C9000843A54908603AE0BD
:10114000E068002820D0A248006801210843A04997
:101150000860FFF7ADFC054606E0FFF7A9FC401B61
:10116000022801D9032034E7994800680221084089
:101170000028F2D096480068F82188432169C90008
:1011800008439349086016E0914800684008400011
:101190008F490860FFF78CFC054606E0FFF788FCE6
:1011A000401B022801D9032013E789480068022167
:1011B00008400028F2D1082120680840082831D1D1
:1011C000E069002817D08248406A0121084380491D
:1011D0004862FFF76DFC054606E0FFF769FC401B1F
:1011E000022801D90320F4E67948406A0221084028
:1011F0000028F2D016E07648406A40084000744962
:101200004862FFF755FC054606E0FFF751FC401B1E
:10121000022801D90320DCE66D48406A022108401B
:101220000028F2D1042120680840042873D100204E
:1012300001906748C0698906084000280ED100BFA8
:101240006348C06908436249C8610846C069090427
:101250000840009000BF00BF012001905D48006879
:10126000FF2101310840002816D15A480068084380
:1012700058490860FFF71CFC054606E0FFF718FC1C
:10128000401B642801D90320A3E652480068FF21CF
:10129000013108400028F1D000BFA068012806D124
:1012A0004B48006A01210843494908622BE0A068C5
:1012B00000280CD14648006A4008400044490862B2
:1012C0000846006A04218843414908621BE0A0687F
:1012D00005280CD13E48006A042108433C490862B5
:1012E0000846006A01210843394908620BE0384882
:1012F000006A40084000364908620846006A042136
:1013000088433349086200BFA068002813D0FFF764
:10131000CFFB054608E02BE0FFF7CAFB401B2E4938
:10132000884201D9032054E62948006A0221084076
:101330000028F1D011E0FFF7BBFB054607E0FFF7FF
:10134000B7FB401B2449884201D9032041E62048CD
:10135000006A022108400028F1D10198012806D135
:101360001B48C0690121090788431949C86100BFAA
:10137000102120680840102860D1606901282DD113
:101380001348406B04210843114948630846406BE9
:10139000012108430E494863FFF78AFB054606E032
:1013A000FFF786FB401B022801D9032011E60848FD
:1013B000406B022108400028F2D00548406BF8211C
:1013C0008843A169C90008430149486336E0000029
:1013D0000010024000700040881300006069401D4A
:1013E00000280FD15A48406B04218843584948636C
:1013F0000846406BF8218843A169C9000843544955
:1014000048631BE05248406B04210843504948633D
:101410000846406B400840004863FFF749FB05461B
:1014200006E0FFF745FB401B022801D90320D0E569
:101430004748406B022108400028F2D1206A00286A
:101440004FD0434840680C210840082864D0206AE7
:10145000022847D13E4800680121090688433C49DB
:101460000860FFF725FB054606E0FFF721FB401B60
:10147000022801D90320ACE535480068012149065E
:1014800008400028F1D100BF3148C06A00090001BE
:10149000E16A08432E49C862616AA06A08432C4980
:1014A00049683D221204914308432949486000BF1E
:1014B0000846006801210906084325490860FFF72E
:1014C000F7FA054606E0FFF7F3FA401B022801D9B8
:1014D00003207EE51E4800680121490608400028D7
:1014E000F1D033E01A480068012109068843184901
:1014F0000860FFF7DDFA054606E0FFF7D9FA401B62
:10150000022801D9032064E5114800680121490639
:1015100008400028F1D119E0206A012800D158E5DF
:101520000B484668C76A012000043040616A88425F
:101530000AD13907090FE06A814205D10F208004E2
:101540003040A16A884201D0012042E5002040E5F8
:101550000010024070B50446002C01D1012070BD7E
:10156000606A002808D1FF2105316068884200D1F7
:1015700005E00021E16102E00021216161610021BB
:10158000A1625D20005D002804D15C200155204649
:1015900000F066F802215D200155206800684021B6
:1015A00088432168086007210902E068884201D960
:1015B000002501E001252D030F210902E068884282
:1015C00006D007210902E068884201D00021A1620B
:1015D000FF2105316068084021229202A168114074
:1015E00008430222216911400843217DC907C90F20
:1015F00008431202A169114008433822E1691140F1
:1016000008438022216A114008439201A16A1140D7
:10161000084321680860A069000C042108401022DA
:10162000616A114008430822616B114008430F2290
:101630001202E168114008430121090329400843CF
:10164000216848602068C0690121C9028843216877
:10165000C8610020206601215D20015500207EE741
:1016600010B586B00446142101A8FEF7DFFD194924
:10167000206888422CD100BF1748C069091408436C
:101680001549C8610846C0690121890308400090D6
:1016900000BF00BF00BF10484069090108430E4960
:1016A000486108464069012189040840009000BF54
:1016B00000BF072040030190022002900020039009
:1016C000032004900020059001A90448FFF7F6F8D4
:1016D00006B010BD00380040001002400004004871
:1016E000FFB583B0044616461D460020029000BF99
:1016F0005C20005D012802D1022007B0F0BD01216D
:101700005C20015500BFFFF7D3F9074601965D2025
:10171000005D012802D002200290BDE0049800285C
:1017200001D0002E02D101200290B5E003215D20FE
:101730000155002020660498A063A687E687002054
:1017400020640021442001534620015300202065DD
:10175000E0640121C903A06888420CD120680068B8
:1017600040218843216808602068006801218903BE
:10177000084321680860206800684021084040282C
:1017800004D0206800680843216808600721090226
:10179000E068884232D96068002802D001980128A8
:1017A00009D1A06B00882168C860A06B801CA06371
:1017B000E08F401EE0871DE020688068022108401D
:1017C00002280AD1A06B00882168C860A06B801C29
:1017D000A063E08F401EE0870CE0FFF769F9C01BB3
:1017E000A84202D3681C002801D1002D02D1032099
:1017F000029051E0E08F0028DED131E060680028DF
:1018000002D00198012809D1A06B007821680873E3
:10181000A06B401CA063E08F401EE0871DE02068A5
:1018200080680221084002280AD1A06B0078216854
:101830000873A06B401CA063E08F401EE0870CE0A3
:10184000FFF736F9C01BA84202D3681C002801D15B
:10185000002D02D1032002901EE0E08F0028DED18F
:101860003A462946204600F007FF002801D02020F4
:101870002066A068002809D100BF00902068C068D9
:10188000009020688068009000BF00BF206E002894
:1018900001D00120029000BF01215D20015500BF51
:1018A00000215C20015500BF029826E7FFB585B0F6
:1018B00004461D460E9E012001900020009000BFAE
:1018C0005C20005D012802D1022009B0F0BD012199
:1018D0005C20015500BFFFF7EBF807465D20005D77
:1018E0000290606803900495029801280DD0FF21B2
:1018F00005310398884205D1A068002802D10298DA
:10190000042802D002200090FBE00698002804D0B2
:101910000798002801D0002D02D101200090F0E0AE
:101920005D20005D042802D005215D2001550020C6
:1019300020660798206446200553442005530698E6
:10194000A063E587A5870020E064206507210902E0
:10195000E068884207D9206840680121090388436C
:101960002168486006E020684068012109030843B7
:10197000216848602068006840210840402804D061
:101980002068006808432168086007210902E068B0
:10199000884254D96068002802D00498012809D1EF
:1019A000A06B00882168C860A06B801CA063E08FDA
:1019B000401EE0873BE02068806802210840022842
:1019C00011D1E08F00280ED0019801280BD1A06B17
:1019D00000882168C860A06B801CA063E08F401E57
:1019E000E0870020019020688068C007C00F0028B1
:1019F00012D04620005B00280ED02068C068216C01
:101A00000880206C801C20644620005B401E81B250
:101A10004620015301200190FFF74AF8C01BB04255
:101A200005D3701C002802D00320009069E0E08FED
:101A30000028C0D14620005B0028BCD155E060687A
:101A4000002802D00498012809D1A06B00782168F1
:101A50000873A06B401CA063E08F401EE0873DE050
:101A60002068806802210840022811D1E08F0028F8
:101A70000ED0019801280BD1A06B00782168087363
:101A8000A06B401CA063E08F401EE0870020019007
:101A900020688068C007C00F002812D04620005B75
:101AA00000280ED02068007B216C0870206C401C40
:101AB00020644620005B401E81B246200153012075
:101AC0000190FEF7F5FFC01BB04202D3701C002846
:101AD00001D1002E02D10320009012E0E08F0028F7
:101AE000BED14620005B0028BAD13A463146204696
:101AF00000F0C2FD002803D00120009020202066C5
:101B000000BF01215D20015500BF00215C2001556F
:101B100000BF0098D9E6000070B504462546681E4F
:101B20000949884201D901200CE0681E0749486133
:101B30000321081F01F0A8F900200449886107204B
:101B40000861002070BD0000FFFFFF0000E000E022
:101B50007047704730B502460B4600BF3C20805CA2
:101B6000012801D1022030BD01253C20855400BF51
:101B700002253D20855410684468106881687025EE
:101B80002046A84304461868044310684460114D79
:101B90001068A8420CD00125AD071068A84207D0F4
:101BA0000D4D1068A84203D00C4D1068A84207D113
:101BB00080250846A84301465868014310688160A3
:101BC00001253D20855400BF00253C20855400BFE1
:101BD0000020C8E7002C0140000400400040014004
:101BE00010B50446002C01D1012010BD3D20005D40
:101BF000002805D100213C200155204600F022F8A4
:101C000002213D200155211D206800F09FFE012189
:101C10004620015500BF3E2001553F200155402080
:101C200001554120015500BF00BF4220015543200E
:101C30000155442001554520015500BF3D20015567
:101C40000020D2E738B504460D492068884215D1F6
:101C500000BF0C48C069102108430A49C861084602
:101C6000C06910210840009000BF00BF002211464B
:101C70001120FEF797FF1120FEF786FF38BD000008
:101C8000001000400010024001463D20405C012849
:101C900001D00120704702233D2043540868C068EA
:101CA000012318430B68D860124B086898420CD087
:101CB00001239B070868984207D00F4B0868984299
:101CC00003D00E4B086898420CD108688068420720
:101CD000520F062A0CD008680068012318430B68CD
:101CE000186005E008680068012318430B68186055
:101CF0000020CFE7002C01400004004000400140DC
:101D0000704710B504462068006902210840400869
:101D100000281CD02068C06808404008002816D061
:101D2000481F2168086101202077206880698007AA
:101D3000800F002803D02046FFF7E2FF05E0204691
:101D400000F0C3F8204600F0C1F80020207720689A
:101D5000006904210840800800281DD02068C06860
:101D600008408008002817D0C84321680861022075
:101D7000207720688069032109020840002803D0E9
:101D80002046FFF7BDFF05E0204600F09EF8204604
:101D900000F09CF8002020772068006908210840A6
:101DA000C00800281CD02068C0680840C00800286F
:101DB00016D0C84321680861042020772068C069D4
:101DC0008007800F002803D02046FFF799FF05E029
:101DD000204600F07AF8204600F078F800202077BE
:101DE0002068006910210840000900281DD02068E3
:101DF000C06808400009002817D0C843216808615E
:101E0000082020772068C0690321090208400028C3
:101E100003D02046FFF774FF05E0204600F055F898
:101E2000204600F053F80020207720680069C007A2
:101E3000C00F01214840484000280CD02068C068ED
:101E4000084048404840002805D0C81E2168086165
:101E5000204600F03CF82068006980210840C00955
:101E600000280BD02068C0680840C009002805D0B1
:101E7000C843216808612046FFF76AFE20680069B0
:101E800040210840800900280BD02068C068084025
:101E90008009002805D0C84321680861204600F069
:101EA00017F82068006920210840400900280BD05D
:101EB0002068C06808404009002805D0C843216850
:101EC00008612046FFF745FE10BD70477047704718
:101ED000704710B50446002C01D1012010BDA06947
:101EE000002800D000E000BFA06F002805D100212D
:101EF00074200155204600F02BF82420A0672068AC
:101F000000684008400021680860204600F028FE74
:101F1000012800D1E2E7606A002802D0204600F0E4
:101F20006DFD206840680921C90288432168486026
:101F3000206880682A2188432168886020680068BA
:101F40000121084321680860204600F0CFFDC5E765
:101F500010B586B00446142101A8FEF767F91A49A6
:101F6000206888422ED100BF18488069012189036A
:101F700008431649886108468069012189030840A1
:101F8000009000BF00BF00BF10484069C90008436F
:101F90000E49486108464069012149040840009003
:101FA00000BF00BF0F2040020190022002900020DD
:101FB0000390032004900120059001A90920C00688
:101FC000FEF77CFC06B010BD003801400010024056
:101FD000FFB583B004460D461746A06F202876D182
:101FE000002D01D0002F02D1012007B0F0BD01214A
:101FF0000903A068884208D12069002805D1E807B4
:10200000C00F002801D00120EFE700BF7420005D61
:10201000012801D10220E8E701217420015500BF09
:102020000021802001512120A067FEF741FD019091
:10203000502007535220075301210903A06888420A
:1020400005D12069002802D10026029502E02E4623
:102050000020029000BF00217420015500BF21E044
:1020600006980090002280212046019B00F046FE49
:10207000002801D00320B8E7002E09D1029800887B
:10208000C005C00D216808850298801C029003E0FD
:10209000307821680885761C5220005B401E81B292
:1020A000522001535220005B0028D9D1069800909D
:1020B000002240212046019B00F020FE002802D093
:1020C000032092E703E02020A06700208DE7022094
:1020D0008BE700BFFEE7000008B5002000900D4828
:1020E000407F012815D140211F2000F09DF80A49AA
:1020F00008704721202000F097F8074908708821D0
:10210000232000F091F8044908706946272000F068
:1021100005F808BD7C00002000000020F8B504464A
:102120000D460126F0012043144908701448406907
:1021300031038843124948611248407F01280FD17A
:1021400064200223104A0D4900900E484038FFF7E2
:10215000ADFB002801D0012000E000200B490870F1
:1021600007484069012109030843054948610648B9
:102170004078287005480078F8BD00000500002070
:10218000000400487C000020070000200000002020
:1021900010B5044622492820FFF7C0FF21490870E6
:1021A0001F48007820801E492920FFF7B7FF1D49EE
:1021B000087020881A4909780902084300B2208073
:1021C00017492A20FFF7AAFF16490870144800781B
:1021D000608013492B20FFF7A1FF12490870608827
:1021E0000F4909780902084300B260800C492C208D
:1021F000FFF794FF0B49087009480078A080084950
:102200002D20FFF78BFF07490870A0880449097843
:102210000902084300B2A0800248007810BD000007
:102220000900002000000020F8B504460D460026F5
:10223000F00120431449087008464570134840696E
:10224000012109038843114948611148407F012851
:102250000FD1642002230F4A0B4900900C484038EC
:10226000FFF724FB002801D0012000E000200A49EC
:102270000870064840690121090308430349486181
:1022800005480078F8BD0000010000200004004867
:102290007C000020030000200000002010B51E4834
:1022A0000078002836D000201B4908701B480088A1
:1022B000401C1A49088008460088FF212D318842B9
:1022C00006DA17484069F0218843154948611FE044
:1022D000192112480088FDF74DFF00290CD1114843
:1022E0000078002801D1012000E000200D4908708D
:1022F000FF202D300949088001200B49087008484B
:102300004069F021084306494861012007490870E7
:10231000012010BD0020FCE70E000020100000206E
:10232000000800480D0000200F0000200C000020D5
:1023300000B587B0142102A8FDF778FF00BF584808
:1023400040690121C904084355494861084640696C
:102350000121C9040840019000BF00BF00BF5048E0
:102360004069C90008434E49486108464069012157
:1023700089050840019000BF00BF00BF4848406980
:10238000491108434649486108464069012149040A
:102390000840019000BF00BF00BF414840694900AC
:1023A00008433F49486108464069012189040840C3
:1023B000019000BF00BF0022FF2109023948FEF74B
:1023C00071FB0122F0213748FEF76CFB00223649F1
:1023D0003648FEF767FB0122D1030920C006FEF74D
:1023E00061FB334802900120039000200490059087
:1023F00002A92C48FEF762FA0F20029000200390F9
:10240000049002A92748FEF759FA01200290032000
:1024100003900020049002A90920C006FEF74EFA9E
:10242000E0200290022003900020049003200590F9
:102430000020069002A90920C006FEF73FFA1A48BC
:1024400002900120039000200490059002A91748F3
:10245000FEF734FAFF200130029000200390049030
:1024600002A90920C006FEF729FAC0200290122016
:102470000390012004900320059002A90D48FEF767
:102480001DFA0120C0030290012003900020049057
:10249000059002A90920C006FEF710FA07B000BD9A
:1024A00000100240000800488710000000040048A7
:1024B000F0FF00000014004810B5124812490860EF
:1024C000FF200530486000210F4881600721090284
:1024D000C16000210161416101214902816128211E
:1024E000C16100210162416281620721C162002154
:1024F00001634163FFF72EF8002801D0FEF7C7F90A
:1025000010BD0000003800403C0000201CB5002039
:10251000009001900E480F4908600F484860002164
:102520000C4881606321C16080218161FFF758FB05
:10253000002801D0FEF7ABF9002000900190694619
:102540000448FFF707FB002801D0FEF7A0F91CBDE7
:1025500000100040A0000020BF12000010B50E487F
:102560000E490860E1204002486000210B4881606C
:10257000C16001610C21416100218161C161016281
:102580000020064948620846FFF7A3FC002801D056
:10259000FEF77DF910BD000000380140E800002082
:1025A00010B5FEF701FD10BD7047000070B5044680
:1025B0000020205E00280ADA0020205E002801DBCF
:1025C000014600E041420922511A0DB202E0208882
:1025D000093005B2002D00DA0025062D00DD0325A7
:1025E0000020205EC01C030000F029FC07110D092B
:1025F0000515191D2100F7201B4908701FE0FB205D
:10260000194908701BE0FD201749087017E0FE20EB
:102610001549087013E0EF20134908700FE0DF2020
:10262000114908700BE0BF200F49087007E00F4800
:102630000078C0017F2108430B49087000BF00BF2C
:102640000B4840698021884309494861642301227D
:1026500005490848FFF744F80548406980210843C8
:102660000349486170BD0000120000200D000020E9
:10267000000400483C000020F8B504460E4615460C
:10268000334600220321C9022046009500F02AF8B3
:10269000002805D0206E2021084320660320F8BDC5
:1026A0003346002280212046009500F08FF8002854
:1026B00005D0206E2021084320660320EFE7334633
:1026C0000022032149022046009500F00BF8002863
:1026D00005D0206E2021084320660320DFE700207C
:1026E000DDE70000FEB504460D4616461F46FEF720
:1026F000DFF90899401A381A0190FEF7D9F90090CD
:102700003148006823214843000D01994843029055
:1027100052E003204002854203D1002E01D12068FF
:10272000007B781C002847D0FEF7C2F90099411AB7
:102730000198814202D20198002836D12068406871
:10274000E021884321684860FF21053160688842A4
:102750000ED10121C903A068884203D04911A068A5
:10276000884205D1206800684021884321680860BC
:1027700001214903A06A88420DD100BF206800688A
:1027800088432168086020680068012149030843E4
:102790002168086000BF01215D20015500BF0021B4
:1027A0005C20015500BF0320FEBD0298002800D127
:1027B00001900298401E0290206880682840B04234
:1027C000A7D10020F0E7000034000020FFB583B05F
:1027D00004460D461E46FEF76BF90C99401A371A4F
:1027E000FEF766F901902F4800684001000D78431C
:1027F000029049E0701C002846D0FEF759F9019973
:10280000401AB84201D2002F37D120684068E02139
:10281000884321684860FF210531606888420ED1F5
:102820000121C903A068884203D04911A0688842E9
:1028300005D1206800684021884321680860012193
:102840004903A06A88420DD100BF20680068884310
:102850002168086020680068012149030843216855
:10286000086000BF01215D20015500BF00215C20F0
:10287000015500BF032007B0F0BD0298002800D129
:1028800000270298401E0290206880682840A842D5
:1028900001D1012100E0002105988142AAD1002048
:1028A000E9E7000034000020704710B5FEF706F994
:1028B00010BD00B595B0302109A8FDF7B7FC002088
:1028C000059006900790089014216846FDF7AEFC2D
:1028D000012009900A9002201190C1031291C104B5
:1028E00013910021149109A8FEF76EFB002801D076
:1028F000FDF7CDFF072005900220069000200790ED
:102900000890012105A8FEF70FFA002801D0FDF775
:10291000BEFF01200090002002906846FEF74CF9AF
:10292000002801D0FDF7B3FFFEF7B4FA15B000BDE3
:102930007047000010B50348FFF7E3F90120024992
:10294000087010BDA00000200E00002010B5026825
:10295000244B984206D001239B07984202D0224B79
:10296000984205D170241346A3431A464B681A4374
:102970001C4B984212D001239B0798420ED01A4B51
:1029800098420BD0194B984208D0194B984205D069
:10299000184B984202D0184B984206D103242402C7
:1029A0001346A3431A46CB681A4380241346A34315
:1029B0004C6923431A4602608B68C3620B688362CA
:1029C000084B984208D00A4B984205D0094B9842D0
:1029D00002D0094B984201D10B6903630123436183
:1029E00010BD0000002C0140000400400020004009
:1029F000004001400044014000480140818CC9076B
:102A0000C90F002908D00168496801225204914386
:102A1000826A1143026851600222416A1140022910
:102A200007D101684968D2039143C26A1143026821
:102A300051600422416A1140042907D101684968A4
:102A400012049143026B1143026851600822416AEB
:102A50001140082907D10168496812039143426B6C
:102A60001143026851601022416A1140102907D1B8
:102A70000168896812029143826B11430268916078
:102A80002022416A1140202907D101688968120279
:102A90009143C26B1143026891604022416A114028
:102AA000402915D10168496892039143026C114392
:102AB0000268516001221205016C914208D101683F
:102AC0004968032252059143426C114302685160E8
:102AD0008022416A1140802907D1016849681203A8
:102AE0009143826C114302685160704738B50446C7
:102AF000002180200151FDF7DBFF054620680068BA
:102B00000821084008280BD114482B4600228904CC
:102B10000090204600F0F2F8002801D0032038BDD4
:102B2000206800680421084004280BD10B482B467C
:102B3000002209050090204600F0E0F8002801D0AE
:102B40000320ECE72020A067E0670020206600BF9C
:102B500000217420015500BF0020E0E7FFFFFF01C6
:102B6000FEB50446002000902169A0680843616911
:102B70000843E16908430290206800685949084009
:102B8000029908432168086020684068032109030E
:102B90008843E168084321684860A0690290206A80
:102BA000029908430290206880680B21090288433B
:102BB000029908432168886000BF4B492068884219
:102BC00017D14A48006B8007800F002806D00128E3
:102BD00008D0022808D0032808D101E0002607E029
:102BE000022605E0042603E0082601E0102600BFC7
:102BF00006E03F492068884201D1002600E0102607
:102C000000BF0121C903E069884239D1002E06D0F6
:102C1000022E08D0042E08D0082E0DD109E0FEF7B0
:102C200049F905460CE0334D0AE0FEF755F9054633
:102C300006E00125ED0303E000250120009000BF20
:102C400000BF002D49D06A0063685B08D018616836
:102C5000FDF77AFA87B2102F0FD3274887420CD896
:102C600025480F38384001903807400F0199084334
:102C7000019001982168C8602FE0012000902CE0AD
:102C8000002E06D0022E08D0042E08D0082E0DD11A
:102C900009E0FEF70FF905460CE0164D0AE0FEF7D5
:102CA0001BF9054606E00125ED0303E000250120A0
:102CB000009000BF00BF002D0FD061684A08501976
:102CC000FDF742FA87B2102F05D30B48874202D88E
:102CD0002068C76001E00120009000206066A066C7
:102CE0000098FEBDF369FFFF00380140001002406C
:102CF0000044004000127A00FFFF0000FFB581B0E1
:102D000004460D4617460A9E4CE0701C002849D028
:102D1000FDF7CEFE0499401AB04201D8002E17D11B
:102D200020680068FF21A13188432168086020687D
:102D3000806840084000216888602020A067E06724
:102D400000BF00217420015500BF032005B0F0BD75
:102D50002068006804210840002823D02068C0694A
:102D600049020840C00A00281CD0084621680862B1
:102D700020680068FF21A13188432168086020682D
:102D8000806840084000216888602020A067E067D4
:102D900020218020015100BF00217420015500BF77
:102DA0000320D3E72068C0692840A84201D1012050
:102DB00000E00020B842A8D00020C7E737B514468D
:102DC0000846064B6A46214600F0D4F90446694697
:102DD000002000F06DFD20463EBD0000B138000827
:102DE0002021020C01D010211046020A01D0104609
:102DF0000839020901D01046091F820801D0104687
:102E0000891E420801D0881E7047081A7047F8B51D
:102E100082B28BB2040C0D0C10465843002126469A
:102E20005E43370C36048019794116466E43370CE1
:102E300036048019794126466E438919F8BD30B4AD
:102E40007446641E2578641CAB4204D3635D5B004A
:102E5000E31830BC18471D46F8E700004900CA02D5
:102E60000243100000D004204A0D01D0012210437B
:102E7000044A490D914201D102210843012800D1A1
:102E800005207047FF07000010B5002819DB1A4A1B
:102E900003231B02D21883089B00D2588307DC0E41
:102EA000FF23A3409A438B071B0E8407E40EA34025
:102EB0001A43114B032424021B198408A4001A513D
:102EC00018E00E4A03071B0F083B9B089B00D258D3
:102ED0008307DC0EFF23A3409A438B071B0E840756
:102EE000E40EA3401A43054B0407240F083CA40832
:102EF000A4001A5110BD000000E100E01CED00E04C
:102F0000F8B504464F1EC8000838211815461E465D
:102F1000086849683A4606239A4310D02A46334641
:102F2000FDF7A4F93A46D200083AA3181A687F1EA2
:102F30005B68FDF775FB06223B469343EED1022FFB
:102F400023D0042F11D0062F2FD12A463346FDF768
:102F50008DF9E36AA26AFDF763FB2A463346FDF763
:102F600085F9636A226AFDF75BFB2A463346FDF763
:102F70007DF9E369A269FDF753FB2A463346FDF765
:102F800075F963692269FDF74BFB2A463346FDF765
:102F90006DF9E368A268FDF743FB2A463346FDF767
:102FA00065F963682268FDF73BFBF8BD10B50122A7
:102FB000FDF757FC10BD10B5FDF732FB10BD00004A
:102FC000034A10B500201107FDF74BFC10BD0000AF
:102FD00001FDFFFF02E008C8121F08C1002AFAD154
:102FE00070477047002001E001C1121F002AFBD189
:102FF0007047000001490860704700003800002059
:10300000F0B51FB486B00998089A030D0021024359
:1030100014D05148514A18185043051411980128EA
:1030200010981AD0281A401C00264D4F4D49009682
:1030300001910490002812DA444211E01198012411
:1030400049A3012801D11098C1430698119A8460C0
:103050000360C26041600BB0F0BD4042E4E704464B
:10306000210500203F4A001C51410391029012E0CB
:10307000E00707D032463B4601990098FDF7F6F885
:103080000191009032463B4610461946FDF7EEF896
:1030900006460F466410002CEAD10498039B0028D2
:1030A000029A0999089806DAFDF7E0F8019B009A60
:1030B000FDF7DCF805E0FDF741F9019B009AFDF70B
:1030C0003DF904460E460022284BFDF791FB03D83C
:1030D0000020C043014607E00022254B2046314630
:1030E000FDF79EFAFDF750FB102409E0002C0ADBE7
:1030F0000A220023FDF752F8079B30321A55641E4E
:1031000002460A43F2D11122641C079B121B1C19B0
:10311000119B012B03D0012308430ED10AE0084381
:1031200004D0112010900020119077E71098151A04
:103130006D1E0BE01098824202DD00236D1C03E03F
:10314000824201DA00236D1E002BEED00698119901
:103150008260C16030C07EE701FCFFFF104D0000BF
:10316000000014400000F03F300000000000F04379
:103170000000E03FFFB597B0064600251BE225287A
:1031800076D100242746F749049400E00443761CD6
:1031900032780120203A90400842F7D130782A282E
:1031A0000ED00222307801463039092916D8049908
:1031B0000A235943303940181443761C0490F1E730
:1031C000189802C804911890002904DA01204003DD
:1031D00004434842049002200443761C30782E2891
:1031E00014D1042004437078761C2A2809D1189839
:1031F000761C80C8189009E00A214F43303FC71958
:10320000761C3078014630390929F5D930786C2898
:1032100010D006DC4C281AD068280ED06A2817D1A6
:1032200004E0742813D07A2812D110E00120400560
:1032300004430CE00121090501E0032109050C43C9
:103240007178814203D1012000052418761C761C78
:10325000307866280BD013DC58287DD009DC002894
:103260007BD04528F6D04628F4D047281AD1A9E1CA
:1032700018E0632835D0642870D0652812D1A1E108
:1032800070286CD008DC6728F1D069287DD06E28C2
:103290000DD06F2806D1BCE073282ED0752873D0CE
:1032A000782859D01A9A199990476D1C82E16002CA
:1032B000400F022809D003280DD00428189801686F
:1032C0000DD00D60001D189074E11898EA17016880
:1032D0000D604A60F6E7189801680D80F2E70D70FE
:1032E000F0E718986A4601781172001D18900020C6
:1032F000507202A80090012005E0189802C81890AA
:1033000000200091C04361070ED5002101E0019922
:10331000491C0191B94213DA8142F8DB019A009904
:10332000895C0029F3D10BE0002101E00199491CDF
:1033300001918142FADB019A0099895C0029F5D15B
:10334000019904981A9B471A21463846199A00F0A9
:1033500099FA4019019903E051E030E115E050E09D
:10336000451807E0009800990078491C00911A9AC6
:10337000199990470198401E0190401CF2D12146B6
:1033800038461A9B199A12E137E00A200021009072
:1033900001916002410F022907D0189A01CA1892C0
:1033A000C2179446032908D00AE01898C01DC10826
:1033B000C90005C91891944607E000B2C2179446A7
:1033C000042902D140B2C1178C46002261469445BF
:1033D00006DA0A460021404291418C462D2102E046
:1033E000210504D52B216A461173012103E0E10771
:1033F00001D02021F7E7029156E00A200AE01020D0
:1034000008E01020009000210420044301910827C7
:1034100003E008200021019100906002410F022981
:1034200007D0189A01CA189200229446032908D09E
:1034300008E01898C01DC108C90005C91891944634
:1034400003E080B2042900D1C0B20021029121071B
:103450002AD531780D91702906D0009A1021019B50
:103460004A401A4305D00EE040216A4611730121FB
:1034700008E06146014306D030216A4611730D9978
:10348000517302210291009A0821019B4A401A437C
:103490000AD16146014301D1610705D530216A4651
:1034A000117301217F1E02913178582904D02EA179
:1034B0000E910DA90D910DE030A1F9E76146019B38
:1034C000009AFCF76BFE0E9B8C469B5C0D9A521E7D
:1034D0000D92137061460143F0D10D9805A9081AA9
:1034E00020300190600703D501200004844300E0F0
:1034F00001270198874201DD381A00E00020019978
:1035000000904118029809180498401A0490E003AA
:1035100006D421461A9B199A049800F0B3F945196C
:10352000002706E003A81A9AC05D199990476D1C00
:103530007F1C02988742F5DBE0030CD521461A9BDD
:10354000199A049800F09EF9451904E01A9A30205F
:10355000199990476D1C0099481E00900029F5DCD0
:103560001FE000000928010030313233343536378E
:1035700038396162636465660000000030313233BF
:10358000343536373839414243444546000000005F
:103590000D980D990078491C0D911A9A1999904728
:1035A0006D1C0199481E01900029F1DC4DE100F0ED
:1035B00059F94519761C3078002800D0DFE52846F7
:1035C0001BB0F0BD600700D406271898C01DC108C5
:1035D000C90048680A680831C30FDB071891190051
:1035E00001D09CA108E0210501D59BA104E0E107E1
:1035F00001D09AA100E09AA14300109130785B08B5
:1036000065280CD006DC452809D046281DD047285F
:1036100041D141E0662818D067283CD13CE0002128
:10362000112F01DB112000E0781C0191009008A906
:1036300011A8FFF7E5FC139905910021119A159245
:103640007F1C12980197009150E00120C007039061
:103650000120019008A9009711A8FFF7D1FC139A47
:10366000149905920022119B009212981593059AC5
:103670000192002901D0104602E0791C4018019007
:10368000381A01D5019804E04042401E0090781C91
:103690000190C01B029043E0012F00DA01270021B6
:1036A000112F01DD112000E038460191009008A99A
:1036B00011A8FFF7A5FC13990591119A0021129802
:1036C00015920091019721070CD40599B94201DBAD
:1036D000019900E00191012904DD159A491E515C10
:1036E000302906D0B84201DA011D05DA0121029124
:1036F00015E00199491EEDE7002805DC0099411805
:1037000000910199091A03E0019A411C914200DDE0
:1037100001910099401A401C02900120C0070390BB
:10372000200706D402990198814202DB0020C043A1
:10373000029000206946C87707AF0121039803373C
:10374000C907884224D0022011902B2012900398A0
:1037500000280CDA404203902D20129007E00A2145
:103760000398FCF7F1FC30317F1E039039701199FA
:10377000481E11900029F2DC03980028EFD1791E31
:10378000129808703078202108404530BF1E3870EC
:1037900006A8C01BC01D039010980078002800D018
:1037A0000120019941180298C017091803980918B7
:1037B0000498401A401E0490E00306D421461A9B48
:1037C000199A049800F05EF84519109800780028BE
:1037D00003D01A9A199990476D1CE00324D521460D
:1037E0001A9B199A049800F04DF845191CE00098AE
:1037F000002807DB00990598884203DD1598405C96
:10380000199901E0199930201A9A904700986D1C77
:10381000401C00900298401E0290002804D11A9A81
:103820002E20199990476D1C0199481E019000297E
:10383000DDDC05E038781A9A7F1C199990476D1CD9
:103840000399481E03900029F4DC21461A9B199A1B
:103850000498ACE62D0000002B00000020000000C2
:1038600000000000F8B5044600251E4617468804EF
:1038700004D405E039462020B0476D1C641EF9D5FC
:103880002846F8BDFFB50446002581B01E46C80392
:1038900001D5302700E02027880404D505E038460C
:1038A0000399B0476D1C641EF9D5284605B0F0BDDC
:1038B0000A68531C0B6010707047000070B5054615
:1038C0000020285E00280ADA0020285E002801DB9C
:1038D000014600E041420922511A0CB202E0288858
:1038E000093004B2002C00DA0024122C00DD12246E
:1038F00007A10C48FCF7B1FC4F200A4908550221EA
:10390000012000F017FB074907A000F09FFC70BDE5
:103910002D2D2D2D2B2D2D2D2D3D2D2D2D2D2B2DCB
:103920002D2D2D001400002025730A0010B504462B
:1039300000F0F6FA204600F005F82046FEF736FEC5
:1039400010BD000010B504460121084600F0F2FA4F
:103950000021615EDF2202A000F078FC10BD0000B3
:103960002020202020202025336425316300000002
:10397000F0B589B004460D464800069172494008EA
:10398000884215DB7149884203DC884207D1002C4C
:1039900005D020462946FFF709FB09B0F0BD6C4869
:1039A000002D02DD6B4909B0F0BD6B4909B0F0BDD7
:1039B0006A49884211DA6A4988420BDA2046294668
:1039C000FFF74CFA042801D1FFF7FAFA20462946FE
:1039D00009B0F0BD0026F6435DE06D0061496D0859
:1039E000884232DA6049884219DA002601233246D9
:1039F0009B0720462946FCF713FE0746019101224A
:103A000020462946FCF72DFF0022584BFCF7ADFE5F
:103A10003A46019BFCF792FC04460D463BE001262A
:103A20000022524B20462946FCF7FAFD074600913A
:103A300000224E4B20462946FCF797FE3A46009B53
:103A4000FCF77CFC04460D4625E04949884219DA1A
:103A500002260022474B20462946FCF707FC00229D
:103A6000424BFCF7DDFD074602910022414B204608
:103A70002946FCF77AFE3A46029BFCF75FFC0446B7
:103A80000D4608E0032622462B4600203A49FCF763
:103A900055FC04460D4622462B4610461946FCF7B7
:103AA000E5FB07460B4602460191FCF7DFFB0246A9
:103AB000029032480B46039106217844FFF720FA22
:103AC0003A46019BFCF7D2FB00902D48019105215D
:103AD0007844039B029AFFF713FA039B029AFCF7C0
:103AE000C5FB02460B4601990098002E0BDAFCF745
:103AF00097FD22462B46FCF7B9FB22462B46FCF7E6
:103B00003AFE09B0F0BDFCF78BFD22462B46FCF7D0
:103B1000ADFB1C4AF6007A4493191A685B68FCF7FF
:103B200024FE22462B46FCF720FE174A7A449319BE
:103B30001A685B68FCF71FFE069A002AE1DA012288
:103B4000D207514009B0F0BD000010440000F07FE2
:103B5000182D4454FB21F93FFB21F9BF0000DC3F45
:103B60000000203E0000F33F0000E63F0000F03F71
:103B7000008003400000F83F0000F0BF0209000091
:103B8000C40800005E08000028080000F0B51FB45B
:103B9000039A029D53006E422E439446F40F5B0835
:103BA0004A00574E52081C438E46B44205D847423D
:103BB0000743FC0F1443B44205D92A466346FFF776
:103BC000FAF905B0F0BD4F4E66442E430AD0CC0F33
:103BD0006646B61702273E40264304464A4F144322
:103BE00004D00BE0FFF7C4FE05B0F0BD002EFBD003
:103BF000012EF9D0022E32D0032E34D01C462C4395
:103C00000BD03F4CA34216D1A2420AD10121890711
:103C10008B438A43114603930DE0704600280FDB67
:103C200025E03A4D7D44002E0ED0012E10D0022EFC
:103C300015D0032E17D0A2421DD17046002816DAE7
:103C40003148334905B0F0BD6968286805B0F0BD5A
:103C500001226968D2072868514005B0F0BD384696
:103C60002C4905B0F0BD38462B4905B0F0BD2648BB
:103C70002A4905B0F0BDD21A12153C2A02DD224DA8
:103C8000264C12E06346002B05DA3C23DA4202DAC6
:103C900000252C4609E0039B029AFCF74FFB4900E4
:103CA0004908FFF765FE05460C46002E12D0012E8E
:103CB0000DD01B4A1B4B022E2846214618D0FCF77C
:103CC00054FD3A46134BFCF750FD05B0F0BD012002
:103CD000C00744400022134628462146FCF774FDE5
:103CE00002D10220FFF786F92846214605B0F0BD33
:103CF000FCF73BFD3A46074BFCF73DFD05B0F0BD38
:103D00000000F07F000010C0182D4454C8070000C8
:103D1000FB21F9BFFB210940FB2109C0FB21F93F31
:103D2000075C143326A6A13CF0B589B004460420F4
:103D3000205EFCF77BFB019100900020205EFCF7E9
:103D400075FB0546019B009AFFF720FF00220A4BF6
:103D500003910290FCF78AFA084A094B05910490F6
:103D6000FCF7ECFA07910690FCF78DFB0746384606
:103D7000FCF770FB09B0F0BD0080664054E3A59BE2
:103D8000C4200940FEB506460C4617460025002013
:103D90000190002E07D1302228466D1C22540020AD
:103DA00060552046FEBD002E05DA0A2F03D1012002
:103DB0000190704206B216E039463046FCF7DAF957
:103DC00000910098092802DD0098573001E0009822
:103DD0003030C2B228466D1C225439463046FCF7BA
:103DE000C9F906B200BF002EE6D10198002803D021
:103DF0002D2229466D1C625400206055294620461C
:103E000000F037FA2046CDE738B50446002100918E
:103E10002046FEF7BDF92046FFF786FF01B200916C
:103E20006846FFF783FD6846FFF748FD684600F0E7
:103E30002FFA38BD10B50A48007800280FD10121AB
:103E4000084600F077F807A000F000FA02210120F0
:103E500000F070F809A000F0F9F900F013F810BDB7
:103E60000F0000205450204E697665617520456C26
:103E70002E203C323032343E2000000056434F208A
:103E800041434C000120C003014988617047000094
:103E90000008004810B520480068FF210904884345
:103EA0001D49086001208003886240108861FCF78A
:103EB00011F90120000318498861FCF70BF9174834
:103EC0000078012803D1144800690005C40F0120BF
:103ED000000311498862FCF7FDF8012000030E4938
:103EE0008861FCF7F7F80D480078002803D10A48EC
:103EF00000690005C40F01200003074988620846D5
:103F0000006855210904084303490860012C01D1C8
:103F1000012010BD0020FCE7000800480A00002036
:103F200010B50121002000F01BF90220FCF7F4F885
:103F300010BD000070B504460D460648465D601E83
:103F40008019C6B2802030430146002000F008F9F5
:103F500070BD00003843000808B500BF6A484069DA
:103F60000121C904084368494861084640690121A4
:103F7000C9040840009000BF00BF00BF624840690C
:103F80004900084360494861084640690121090524
:103F90000840009000BF00BF5C48006830218843A3
:103FA0005A4908600846C068302188432030574984
:103FB000C8600A20FCF790F85448006904210840C2
:103FC000002803D001205249087002E00020504927
:103FD00008704E48C068302188434C49C860084684
:103FE000006830218843103048490860494800681B
:103FF00080B249494018474908600120000388629F
:10400000400088624000886241480078012808D159
:1040100004203E498862C820FCF75EF804203B4932
:1040200088613220FCF778F839480078002802D0FF
:10403000012865D127E0022000F0B4F8082000F044
:10404000B1F8022000F0AEF8082000F0ABF828200C
:10405000FCF742F8002000F0A5F80C2000F0A2F8D0
:104060002820FCF739F8002000F09CF8012000F02F
:1040700099F80220FCF750F8002000F093F8062091
:1040800000F090F83DE0032000F08CF80220FCF7EF
:1040900043F8032000F086F81E20FCF71DF80320EB
:1040A00000F080F81E20FCF717F8022000F07AF8E4
:1040B0001E20FCF711F8022000F074F8082000F030
:1040C00071F81E20FCF708F8102000F06BF80020B3
:1040D00000F068F81E20FBF7FFFF002000F062F8F8
:1040E0000C2000F05FF81E20FBF7F6FF002000F028
:1040F00059F8062000F056F81E20FBF7EDFF00E00F
:1041000000BF00BF08BD000000100240000C0048C6
:104110000A000020000800480000555510B504466C
:1041200003E0207800F005F8641C20780028F8D11E
:1041300010BD10B504460A2C06D00C2C09D1022162
:104140000120FFF7F7FE09E002210120FFF7F2FE50
:1041500004E02146012000F003F800BF00BF10BDBD
:1041600070B505460C4600BFFFF794FE0028FBD152
:10417000002D04D0012080030949886103E001205B
:1041800080030749886201204003054988622011A5
:1041900000F008F82007000F00F004F870BD0000E0
:1041A0000008004870B505460B48406984B20B48CA
:1041B000044028020443084844610220FBF78CFFB6
:1041C00001200003044988610220FBF785FF0120DC
:1041D00000030149886270BD00080048FFF000003C
:1041E0001CB5FCF777FCFEF764FBFEF7A1F8FEF7C1
:1041F0008DF9FEF7B3F9FEF75FF9FDF76DFF114892
:10420000FDF742FDFFF7A8FE1AE00F4800780028EE
:1042100004D0012808D002280ED10CE002200A495F
:104220000870FFF707FE08E06846FFF7EDFD022083
:104230000549087001E000E000BF00BFFEF72EF85E
:10424000E3E70000A00000200C0000200FB400B540
:1042500087B009A8009001A8009A0899FEF7AEFD62
:1042600001A8FFF75BFF0020009007B008BC04B076
:10427000184730B50B4600215A1E06E0445C855CA9
:1042800045548454521E491C00BF9142F6DB30BD98
:10429000FEB5044600200190029024A00068009022
:1042A00000200646215E002901DB0A4600E04A4262
:1042B0000A2A01DA01220BE00020205E002801DB3F
:1042C000024600E04242642A01DA022200E00322B0
:1042D00015460027E75F002F01DB394600E07942F1
:1042E00008B20A2201A90131FFF74CFD01A94819C2
:1042F0006946FBF7A6FF208880B20D49884203DAA1
:104300002B206946087102E02D20694608710027BC
:1043100007E06423EA1C01A90648FDF759FE06469A
:104320007F1C281D8742F4DDFEBD0000640D0000E7
:10433000FF7F0000E80000200000400000000000B7
:104340000000000102030406070809000000000144
:1043500002030400000000004FBB610567ACDD3FB5
:10436000182D4454FB21E93F9BF681D20B73EF3F9C
:10437000182D4454FB21F93FE2652F227F2B7A3C14
:10438000075C143326A6813CBDCBF07A8807703CCD
:10439000075C143326A6913CC4EB98999999C9BF40
:1043A000711623FEC671BCBF6D9A74AFF2B0B3BF75
:1043B0009AFDDE522DDEADBF2F6C6A2C44B4A2BF35
:1043C0000D5555555555D53FFF8300922449C23FA1
:1043D0006E204CC5CD45B73F513DD0A0660DB13FD5
:1043E000EB0D76244B7BA93F11DA22E33AAD903FE7
:1043F0000000000000000000184400080000002039
:104400003C000000D42F0008544400083C00002069
:1044100034050000E42F0008000000000000000048
:104420000000000000010000000000002D2D2D2DD7
:104430002B2D2D2D2D3D2D2D2D2D2B2D2D2D2D00CD
:1044400000000000040000000100000000127A00DB
:044450000000000068
:04000005080000BD32
:00000001FF
