:020000040800F2
:1000000060050020D5000008F91500089D120008C1
:1000100000000000000000000000000000000000E0
:10002000000000000000000000000000CD170008E4
:10003000000000000000000001160008CF170008B3
:10004000E7000008E7000008E7000008E7000008F4
:10005000E7000008E7000008E7000008E7000008E4
:10006000E7000008E7000008E7000008E7000008D4
:10007000E7000008E7000008E7000008E7000008C4
:10008000E70000083518000800000000E70000083D
:10009000E7000008E7000008E7000008E7000008A4
:1000A000E7000008E7000008E7000008E700000894
:1000B000E700000800000000E7000008044885464B
:1000C00000F090F800480047791C0008C046C04680
:1000D000600500200448804704480047FEE7FEE72B
:1000E000FEE7FEE7FEE7FEE733180008BD00000864
:1000F00030B50B46014600202022012409E00D46C0
:10010000D5409D4205D31D469540491B2546954047
:1001100040191546521E002DF1DC30BDF0B51FB45C
:100120000646002082B005464024019100901BE065
:10013000019922460F46304600F020F8049A059BAC
:10014000801A994110D310461946224600F039F81A
:10015000361A8F410197224601200021009F00F0AE
:1001600030F838184D4100902046641E0028DFDC2E
:10017000019B00982946324607B0F0BD10B5202AF1
:1001800004DB0846203AD040002110BD0B46D34086
:10019000D0402024A21A91400843194610BDD2B283
:1001A00001E00270401C491EFBD270470022F6E7B6
:1001B00010B513460A4604461946FFF7F0FF2046DD
:1001C00010BD10B5202A04DB0146203A91400020E2
:1001D00010BD914020239C1A0346E34019439040F0
:1001E00010BD0000064C0125064E05E0E36807CC73
:1001F0002B430C3C98471034B442F7D3FFF762FF0F
:10020000441D0008641D000870470000F8B5002276
:1002100092E0012797403B407ED04C68012C05D0EE
:10022000022C03D0112C01D0122C10D1856854005F
:100230000326A640B543CE68A6402E438660446898
:100240000D79BC43ED06ED0F954025434560C6682A
:1002500055000324AC408F68A643AF403743A64601
:10026000C7604C68022C01D0122C0ED1D408A40017
:100270002418276AA4465607F40E0F26A640B74353
:100280000E69A6403E436446266206687446A6434D
:100290000C79A407A40FAC40344304604C68E4001C
:1002A00049D5284CA56901263543A561A46995085F
:1002B00034400094244CAD002F19BD689407240FDE
:1002C0000F26A640B5430926F606B04201D1002606
:1002D0000FE01E4EB04201D101260AE01C4EB04292
:1002E00001D1022605E01B4EB04201D1032600E0F9
:1002F0000526A6402E43BE60174D2C684E689C43D1
:10030000F60300D51C432C606C684E689C43B60312
:1003100000D51C436C6000E00DE0AC684E689C4367
:10032000F60200D51C43AC60EC684E689C43B602F4
:1003300000D51C43EC60521C0B681C46D44000D016
:1003400067E7F8BD001002400000014000040048CB
:1003500000080048000C004800040140002A01D0B9
:100360008161704781627047014880687047000072
:100370000C0000200248816802788918816070476B
:100380000C00002010B506480168102211430160DE
:10039000002000F007F800F027F8002010BD000052
:1003A0000020024070B504460D4D7D202978C00024
:1003B000FFF79EFE01460B480068FFF799FE00F02C
:1003C000C7FD002809D1042C07D200222146401E77
:1003D00000F02AF800206C6070BD012070BD0000A4
:1003E0000C0000201800002008B50848816901228F
:1003F00011438161816911400091C26901040A437E
:10040000C261C0690840009008BD000000100240B1
:10041000002805DBC106C90E01208840014908609B
:100420007047000000E100E010B501F0F3FB10BDE3
:10043000F8B5044600683A4DC00353D5E869002674
:10044000C00007D4E86929040843E861E869084066
:100450000126009033480168C90510D4016882154F
:1004600011430160FFF780FF074604E0FFF77CFFC0
:10047000C01B642823D82B480068C005F6D5286A1D
:100480000321090208401FD062680A4082421BD043
:10049000286A2A6A8843012109040A432A622A6ACF
:1004A0008A432A622862C0070ED0FFF75DFF074625
:1004B00007E0FFF759FFC11B1B48814201D9032008
:1004C000F8BD286A8007F4D5286A03210902884309
:1004D000616808432862002E04D0E86901210907F9
:1004E0008843E8612078C00705D0286BA1688008A0
:1004F0008000084328632078800605D5286B1021EA
:100500008843E168084328632088400505D5286BA7
:10051000402188432169084328630020F8BD00007A
:100520000010024000700040881300007047000077
:10053000F8B50D4604005AD03A480068C007C00F0D
:10054000A8420AD237480168490849002943016096
:100550000068C007C00FA84249D12068324E810709
:100560000CD5400704D57068072109020843706064
:100570007068F0218843A168084370602078C00744
:1005800025D0606801280ED0316802280ED0890776
:1005900000292CDA71688908890001437160FFF72E
:1005A000E3FE07460CE031688903F1E78901EFE7D4
:1005B000FFF7DAFEC11B1D48814201D90320F8BDB7
:1005C00070680C210840616889008842F0D11548A4
:1005D0000168C907C90FA9420BD901684908490038
:1005E000294301600068C007C00FA84201D0012064
:1005F000F8BD2078400706D57068072109028843B6
:10060000E1680843706000F031F87168084A090633
:10061000090F515CC840074908600020FFF7C2FE7F
:100620000020F8BD002002400010024088130000A6
:100630002C1D000818000020034801680122D20484
:100640001143016070470000001002400448054952
:1006500000684968044A4905490F515CC840704721
:1006600018000020001002403C1D000810B514A026
:100670000FC888B06C460FC415A00FC80FC4184A25
:1006800053680C20194601401648042916D0082941
:1006900014D19902090F6C46645CD16A04AA090757
:1006A000090F525CD90305D500231946FFF736FD23
:1006B000214601E020460C4901F094FA08B010BD33
:1006C00002030405060708090A0B0C0D0E0F101093
:1006D0000102030405060708090A0B0C0D0E0F1092
:1006E0000010024000127A0000093D0010B5044CD1
:1006F000A068000603D5FFF719FF8020A07210BD87
:1007000000100240FEB5040076D02078E44DC0070A
:1007100053D068680007800F012807D06868000779
:10072000800F022809D16868C00306D528688003B5
:1007300043D560680028E7D03FE06068012813D007
:1007400001218904002814D0052818D02A688810AF
:1007500082432A602868884328606068002820D087
:10076000FFF702FE064618E0286801210904084345
:10077000F2E728680122120490432860EAE728681B
:100780000843286029680120000401432960E4E748
:10079000FFF7EAFD801B642875D828688003F7D529
:1007A0000BE0FFF7E1FD064604E0FFF7DDFD801BEF
:1007B0006428F1D828688003F7D4207801268007C0
:1007C000002843DA68680007800F07D068680007D0
:1007D000800F022811D16868C0030ED428688007F2
:1007E00002D5E068012807D12868F82188432169EB
:1007F000C9000843286029E04DE1E0680028286826
:1008000015D030432860FFF7AFFD074604E0FFF73F
:10081000ABFDC01B0228BFD828688007F7D5296820
:10082000F82081432069C000014329600EE04008A0
:1008300040002860FFF798FD074604E0FFF794FDAD
:10084000C01B0228A8D828688007F7D420780007A2
:1008500022D5E0690028686A0ED030436862FFF74D
:1008600083FD074604E0FFF77FFDC01B022893D8F5
:10087000686A8007F7D50FE0400840006862FFF71C
:1008800073FD074605E09DE0FFF76EFDC01B0228E3
:100890008FD8686A8007F7D420780427400700289B
:1008A00060DA00200190E869C00008D4E969B80660
:1008B0000143E961E9690140012000910190794813
:1008C0000168C90511D40168821511430160FFF761
:1008D0004BFD009005E0FFF747FD0099401A6428A2
:1008E00070D870480068C005F5D5A06801280AD006
:1008F000002801D0052810D0286A4008400028624E
:10090000286AB84301E0286A30432862A0680028BA
:1009100012D0FFF729FD00900AE0286A38432862C8
:10092000F1E7FFF721FD0099411A5F48814249D85C
:10093000286A8007F5D50DE0FFF716FD009006E068
:10094000FFF712FD0099411A574881423AD8286AA8
:100950008007F5D40198002804D0E869012109072F
:100960008843E8612078C00635D5606901280CD03D
:10097000401D686B23D038436863686B40084000B3
:100980006863FFF7F1FC064622E0686B3843686352
:10099000686B30436863FFF7E7FC064604E0FFF747
:1009A000E3FC801B02285BD8686B8007F7D5686B77
:1009B000F8218843A169C900084368630BE0B84384
:1009C0006863F4E74CE0FFF7CFFC801B022847D8B0
:1009D000686B8007F7D4206A00285ED06968090731
:1009E000890F022942D001273F060228286805D036
:1009F000B8432860FFF7B8FC044633E0B8432860EA
:100A0000FFF7B2FC064604E0FFF7AEFC801B0228AD
:100A100026D828688001F7D4E86AE16A0009000155
:100A20000843E862616AA06A084369683D221204CB
:100A3000914308436860286838432860FFF794FCB6
:100A4000044604E0FFF790FC001B022808D8286841
:100A50008001F7D521E0FFF787FC001B022801D9B0
:100A60000320FEBD28688001F5D416E00128F8D0E7
:100A70006868E96A01221204636A02409A420AD154
:100A80000907E26A090F914205D10F218904084044
:100A9000A16A884201D00120FEBD0020FEBD0000F9
:100AA000001002400070004088130000F8B50400F8
:100AB0000CD0606A002600280AD0266166612546AF
:100AC0004035A662687F002808D00BE00120F8BD01
:100AD0006168C81FFD38F2D0E661F0E72E77204646
:100AE00000F05CF802226A7720680168402399438D
:100AF00001600723E1681B02994201D9002001E04F
:100B0000012000030F273F02B94202D0994200D0D2
:100B1000A662FF236168053319402127A368BF023D
:100B20003B40194323691340227D1943D207D20F5A
:100B300011430123A2695B021A401143E269382381
:100B40001A401143226A80231A401143A26A9B0172
:100B50001A40114322681160A1690422090C114056
:100B6000626A10231A401143626B08231A40114332
:100B70000F23E2681B021A401143012212031040A6
:100B80000143206841602068C16952109143C161EE
:100B90002666012068770020F8BD000010B586B0F9
:100BA000044614216846FFF701FB1149206888427A
:100BB0001CD11048C26909140A43C261C2690A40C3
:100BC0000592426909010A43426140690840059063
:100BD0000720400300900220002101900320029191
:100BE0000491039069460448FFF710FB06B010BD5E
:100BF000003800400010024000040048FFB50646DF
:100C000004464036307F002781B01D4601280AD0B7
:100C100001203077FFF7A8FB0090707F039901282F
:100C200004D0022796E0022005B0F0BD029800280B
:100C300073D0002971D00320707700202066029ABB
:100C4000A263039AA287039AE2872064B080F080AF
:100C50002065E0640122A068D203904209D1206897
:100C6000026840239A430260206802681B021A430C
:100C7000026020680268520603D4026840231A43C7
:100C800002600722E06812029042606825D90028BD
:100C900001D001291DD1A06B21680088C86006E041
:100CA00020688168890709D5A16B0988C160A06B9C
:100CB000801CA063E08F401EE0870AE0FFF754FB32
:100CC0000099401AA84202D3681C02D038E0002DD7
:100CD00036D0E08F0028E3D125E0002801D001299B
:100CE0001ED1A06B21680078087306E02068816837
:100CF000890709D5A16B09780173A06B401CA0631B
:100D0000E08F401EE0870BE0FFF72EFB0099401AB2
:100D1000A84203D3681C03D012E01AE0002D0FD0C4
:100D2000E08F0028E2D129462046009A00F069FCB5
:100D3000002801D020202066A068002802D005E00D
:100D4000032707E02068C16880680090206E0028B3
:100D500000D001270120707700203077384663E704
:100D6000FFB5044683B00020254640350090287F1B
:100D700001260C9F012810D001202877FFF7F4FAF4
:100D80000190697F6268069801290DD0D31FFD3B51
:100D900008D1A268002A05D102E0022007B0F0BD08
:100DA000042901D00220D1E00499002924D005991A
:100DB000002921D000281FD0697F042901D00521F6
:100DC000697700212166059A2264069AEA80069ACC
:100DD000AA80049AA263069AE287069AA287E1642F
:100DE000216507230122E1681B0212039942216851
:100DF0004B6803D9934302E00120A7E013434B6003
:100E000021680A68520603D40A6840231A430A601C
:100E10000721E26809028A42616841D9002901D0AC
:100E2000012836D1A06B21680088C860A06B801CA7
:100E3000A063E08F401EE0872BE02068816889076F
:100E40000ED5E18F00290BD0012E09D1A16B0988A5
:100E5000C160A06B801CA063E08F401EE08700266D
:100E600020688168C9070CD0E988002909D0C068CA
:100E7000216C0880206C801C2064E888401EE8807B
:100E80000126FFF771FA0199401AB84201D3781C84
:100E90005BD1E08F0028D0D1E8880028CDD143E095
:100EA000002901D0012839D1A06B2168007808738E
:100EB000A06B401CA063E08F401EE0872EE02068FE
:100EC000816889070ED5E18F00290BD0012E09D149
:100ED000A16B09780173A06B401CA063E08F401EDA
:100EE000E087002620688168C9070CD0E9880029BE
:100EF00009D0007B216C0870206C401C2064E888BD
:100F0000401EE8800126FFF72FFA0199401AB842E7
:100F100002D3781C02D018E0002F16D0E08F0028F2
:100F2000CDD1E8880028CAD139462046019A00F080
:100F300068FB002803D001200090202020660120BB
:100F4000687700202877009828E703200090F6E7CC
:100F5000094910B5401E884201D9012010BD074C37
:100F600060610321081F00F055FE0020A0610720EA
:100F70002061002010BD0000FFFFFF0000E000E046
:100F800070477047F0B502462032137F012B21D005
:100F9000012616770223537703685D689C687027E3
:100FA000BD430F682F435F6000680B4B984208D029
:100FB000B307984205D0094B984202D0084B98429B
:100FC00004D1802349689C432143816056770020E7
:100FD0001077F0BD0220F0BD002C0140000400405D
:100FE0000040014070B5040005D025462035687FDB
:100FF000002802D006E0012070BD0020287720469E
:1010000000F014F802206877211D206800F01EFC13
:1010100001224034A271AA77EA7722706270A2702E
:10102000E270227162716A77002070BD08B50068B5
:10103000094988420FD10948C26910210A43C26197
:10104000C06900220840009011461120FFF7ECF91A
:101050001120FFF7DDF908BD00100040001002402C
:10106000704770B50446006801690025C9438907C7
:10107000002915DBC168C943890711D4E91E016144
:1010800001202077206880698007204602D0FFF782
:10109000E7FF04E000F096F8204600F094F825778A
:1010A00020680169C943490717D4C168C943490782
:1010B00013D40421C943016102202077206880698C
:1010C0008005800F204602D0FFF7CAFF04E000F041
:1010D00079F8204600F077F8257720680169C94340
:1010E000090716D4C168C943090712D40821C943A6
:1010F0000161042020772068C0698007204602D063
:10110000FFF7AEFF04E000F05DF8204600F05BF86A
:10111000257720680169C943C90617D4C168C94346
:10112000C90613D41021C943016108202077206823
:10113000C0698005800F204602D0FFF791FF04E0D0
:1011400000F040F8204600F03EF82577206801695D
:10115000C943C90708D1C168C943C90704D1891E59
:101160000161204600F030F820680169C943090692
:1011700009D4C168C943090605D48021C943016166
:101180002046FFF7FDFE20680169C943490609D4DE
:10119000C168C943490605D44021C94301612046BD
:1011A00000F013F820680169C943890609D4C168B1
:1011B000C943890605D42021C94301612046FFF7B0
:1011C000E0FE70BD704770477047704710B504006F
:1011D00003D0A06F002802D007E0012010BD00213D
:1011E00074200155204600F027F82420A0672068CD
:1011F0000168490849000160204600F009FC012807
:10120000ECD0606A002802D0204600F069FB20681C
:1012100041680922D20291434160206881682A22F4
:1012200091438160206801680122114301602046DA
:1012300000F0BCFB10BD000010B586B004461421C0
:101240006846FEF7B3FF1349206888421FD1124851
:101250008269012189030A43826182690A400592F9
:101260004269C9000A4342614069084005900F2065
:101270004002009002200190002002900320039081
:101280000120049009206946C006FEF7BFFF06B0A2
:1012900010BD00000038014000100240FEE70000D1
:1012A000F8B50020694608701A48407F012830D1FF
:1012B000194D686901263603B043686110211E206C
:1012C00000F0FAFC154C47212071202000F0F4FCBE
:1012D00020710021212000F0EFFC2071002122204C
:1012E00000F0EAFC20718821232000F0E5FC207149
:1012F0000021242000F0E0FC20710021252000F0D6
:10130000DBFC20716946272000F00AF86869304349
:101310006861F8BD6C000020000400480000002057
:10132000F8B5154A80061178000E4908490089076A
:10133000890F01431170C8018908104C084360707F
:101340000F48407F012815D10E4D686901263603EC
:10135000B04368610F2000900948A21C0223511E6F
:101360004038FFF7FDFC002800D00120207168699B
:10137000304368612079F8BD1C0000200000002087
:101380006C0000200004004870B504461A4928206B
:10139000FFF7C6FF184DED1E2871E8782080E91C84
:1013A0002920FFF7BDFF2871E9782088090208434A
:1013B0002080E91C2A20FFF7B3FF2871E8786080BD
:1013C000E91C2B20FFF7ACFF2871E978608809023F
:1013D00008436080E91C2C20FFF7A2FF2871E87801
:1013E000A080E91C2D20FFF79BFF2871EA78A188D7
:1013F00012021143A18070BD03000020F0B587B038
:1014000014216846FEF7D2FE414842690121C90411
:101410000A43426142690A4005924269C9000A438F
:10142000426142690A400592426949110A43426198
:1014300042690A400592426949000A434261406993
:10144000344E0840FF210590002209023046FEF785
:1014500085FF0122F0213046FEF780FF2E4F00224B
:1014600039462E48FEF77AFF01220920D103C00633
:10147000FEF774FF2A480024012500900294694673
:10148000019503943046FEF7C1FE0F2000900194B1
:10149000694602943046FEF7B9FE032609206946E4
:1014A000C006019600950294FEF7B0FEE020009081
:1014B000022001A951C109206946C0060494FEF723
:1014C000A5FE029469461548009701950394FEF71E
:1014D0009DFE280200900920019469460294C006EE
:1014E000FEF794FEC0200090122001AA61C2694656
:1014F0000C48FEF78BFEE803009009200294694631
:1015000001950394C006FEF781FE07B0F0BD000010
:1015100000100240000800480710000000040048C6
:10152000F0FF00000014004810B511480F49016099
:10153000FF21053141600021072281601202016113
:10154000C26001224161520282610162282241622D
:10155000C261816207220163C2624163FFF7A6FA9A
:10156000002801D0FEF750FE10BD000000380040FA
:101570002C0000201CB500240F4800940D49019454
:1015800001600E49846041606321C16080218161F6
:10159000FFF728FD002801D0FEF736FE00946946CB
:1015A00005480194FFF7EEFC002801D0FEF72CFE61
:1015B0001CBD00000010004090000020BF12000081
:1015C00010B50C480A490160E1214902416000213F
:1015D0008160C16001618161C1610C22016242616F
:1015E0004162FFF7F3FD002801D0FEF70DFE10BDAC
:1015F00000380140D800002010B5FFF777F810BD83
:101600007047F8B50F460B46154600920321044675
:101610000022C90200F01CF82026002812D13B4607
:10162000002280212046009500F074F8002809D19E
:1016300003213B46002249022046009500F008F8AD
:10164000002803D0206E304320660320F8BD000040
:10165000FFB583B016460F4604460C9DFEF784FE88
:10166000411B0698451AFEF77FFE0190284823216A
:1016700000684843000D684342E0032149028F425D
:1016800002D1002E00D1007B0698401C39D0FEF715
:101690006BFE0199401AA84205D2002D03D0009894
:1016A00000282BD02BE020684168E0229143416064
:1016B0006068C11FFD390CD10121A068C9038842AF
:1016C00002D04911884204D1206801684022914328
:1016D00001600121A06A4903884207D1206802689D
:1016E0008A430260206802680A4302600120403495
:1016F000607700202077032007B0F0BD0025401E52
:101700000090206881683940B142B6D10020F3E7EB
:1017100018000020FFB581B01E4604460A9DFEF762
:1017200023FE401B351AFEF71FFE074626480068B9
:101730004001000D684339E0701C38D0FEF714FEFC
:10174000C01BA84205D2002D03D0009800282BD042
:101750002BE020684168E022914341606068C11F2E
:10176000FD390CD10121A068C903884202D049117A
:10177000884204D120680168402291430160012120
:10178000A06A4903884207D1206802688A43026040
:10179000206802680A43026001204034607700201C
:1017A0002077032005B0F0BD0025401E0090206882
:1017B00081680298884305D0002003998842BBD1F4
:1017C0000020EFE70120F8E718000020704710B56F
:1017D000FEF7D0FD10BD70B596B030216846FEF71B
:1017E000E5FC00240C940D940E94142110A80F9481
:1017F000FEF7DCFC01252804099000950001022673
:1018000001950A9008960B946846FEF77BFF072027
:101810000C900E9401210D960F940CA8FEF788FEF3
:1018200010A810951294FEF703FEFEF705FF16B000
:1018300070BD704710B50348FFF713FC0249012043
:10184000087010BD9000002008000020F0B502686C
:101850001D4B0124A4071D4D984203D0A04201D086
:10186000A84203D17026B2434E683243184E194F36
:1018700098420DD0A0420BD0A84209D0164CA042ED
:1018800006D0B04204D0B84202D0144CA04204D1D9
:1018900003242402A243CC6822438024A2434C693F
:1018A000224302608A68C2620A688262984206D055
:1018B000B04204D0B84202D0084A904201D109692E
:1018C000016301214161F0BD002C01400004004092
:1018D0000040014000440140002000400048014019
:1018E00010B5818CC90707D001684A6801235B04E1
:1018F0009A43836A1A434A60818C890707D5016835
:101900004A6801231B049A43C36A1A434A60818CC4
:10191000490707D501684A6801239B049A43036B72
:101920001A434A60818C090707D501684A68012378
:10193000DB039A43436B1A434A60818CC90607D57F
:1019400001688A6801231B039A43836B1A438A60E8
:10195000818C890607D501688A6801235B039A4355
:10196000C36B1A438A60818C490612D501684B68A3
:1019700001221205046C934323434B60016C914296
:1019800007D101684A6803235B059A43436C1A43F5
:101990004A60818C090607D501684A680123DB0487
:1019A000806C9A4302434A6010BD0000F8B50446BB
:1019B000002580300560FEF7D7FC074620680068E8
:1019C000124E000709D501213B4600224905204659
:1019D000009600F0B9F800280DD120680068400793
:1019E0000BD501213B46002289052046009600F0D8
:1019F000ABF8002801D00320F8BD2020A067E067E5
:101A00002566603425750020F8BD0000FFFFFF014A
:101A100070B5044681680069E26901436069002588
:101A20001043014320680268414B1A400A43026098
:101A300020684168032212039143E2681143416028
:101A4000216AA0690143206882680B231B029A4324
:101A50000A43826037492068884210D13648006BBB
:101A60008007800F11D0012805D0022805D0032857
:101A70000AD1022009E0042007E0082005E02F49F0
:101A8000884201D1002000E010200122E369D20346
:101A90002B492C4E934225D1002806D0022807D08E
:101AA000042807D0082839D108E0FEF7CFFD03E06D
:101AB0000A4603E0FEF7DAFD020033D06168500009
:101AC0004A088018FEF714FB80B201461039B14273
:101AD00024D81C49491C01400007420F20680A43D2
:101AE000C2601FE0002806D0022807D0042807D0D3
:101AF000082813D108E0FEF7A9FD03E00A4603E039
:101B0000FEF7B4FD02000DD0616848088018FEF7AA
:101B1000EFFA80B201461039B14201D9012501E046
:101B20002168C86000206066A066284670BD00007D
:101B3000F369FFFF003801400010024000440040FC
:101B400000127A00EFFF0000FFB581B006461F4685
:101B5000044660360A9D38E0681C36D0FEF704FC67
:101B6000C01BA84222D8002D20D020680168490758
:101B70002BD5C069C043000527D401202168C002CD
:101B8000086220680168FF22A13291430160206849
:101B900081684908490081602020A067E06780349F
:101BA000206000203075032005B0F0BD206801687A
:101BB000FF22A132914301602068816849084900F1
:101BC00081602020A067E067EBE72068C169029888
:101BD000884305D0002003998842BDD00020E3E768
:101BE0000120F8E7F8B5040C8BB2264682B25E43BA
:101BF0000D0C1046370C58433604801900217941EA
:101C000016466E43370C36048019794126466E43DA
:101C10008919F8BD8307FF22DB0E9A408907090E58
:101C20009940002808DB830809489B0018180368BE
:101C300093430B43036070470007000F0838830885
:101C400004489B001818C36993430B43C361704752
:101C500000E400E000ED00E002E008C8121F08C147
:101C6000002AFAD170477047002001E001C1121F1D
:101C7000002AFBD1704700000EB5FEF783FBFFF78B
:101C8000AAFDFFF7BBFBFFF775FCFFF799FCFFF719
:101C90004BFC0848FEF70AFFFFF702FB00206946ED
:101CA00008706C4621460F20FFF73AFB01A8FFF7AA
:101CB0006BFBF7E72C00002013B5194A01231178BC
:101CC000800619438907890F000E01436846007991
:101CD0005070FD2001401170C8018A088907104327
:101CE000C90F89010F4C084320700F2301222146A0
:101CF0000D48FEF783FF002800D0012020710A481C
:101D00004030407F012809D10F23012201A9064854
:101D1000FEF774FF002800D00120207120791CBD3F
:101D20001C000020000000202C000020000000000B
:101D3000000000000102030406070809000000007B
:101D400001020304641D0008000000201C000000C4
:101D5000581C0008801D00081C00002044050000DD
:101D6000681C0008000000000000000000000000E7
:101D700001000000040000000000000000127A00D2
:04000005080000BD32
:00000001FF
